{
  "contractName": "VCNFT",
  "abi": [
    {
      "inputs": [
        {
          "internalType": "string",
          "name": "_name",
          "type": "string"
        },
        {
          "internalType": "string",
          "name": "_symbol",
          "type": "string"
        }
      ],
      "stateMutability": "nonpayable",
      "type": "constructor"
    },
    {
      "inputs": [
        {
          "internalType": "address",
          "name": "sender",
          "type": "address"
        },
        {
          "internalType": "uint256",
          "name": "tokenId",
          "type": "uint256"
        },
        {
          "internalType": "address",
          "name": "owner",
          "type": "address"
        }
      ],
      "name": "ERC721IncorrectOwner",
      "type": "error"
    },
    {
      "inputs": [
        {
          "internalType": "address",
          "name": "operator",
          "type": "address"
        },
        {
          "internalType": "uint256",
          "name": "tokenId",
          "type": "uint256"
        }
      ],
      "name": "ERC721InsufficientApproval",
      "type": "error"
    },
    {
      "inputs": [
        {
          "internalType": "address",
          "name": "approver",
          "type": "address"
        }
      ],
      "name": "ERC721InvalidApprover",
      "type": "error"
    },
    {
      "inputs": [
        {
          "internalType": "address",
          "name": "operator",
          "type": "address"
        }
      ],
      "name": "ERC721InvalidOperator",
      "type": "error"
    },
    {
      "inputs": [
        {
          "internalType": "address",
          "name": "owner",
          "type": "address"
        }
      ],
      "name": "ERC721InvalidOwner",
      "type": "error"
    },
    {
      "inputs": [
        {
          "internalType": "address",
          "name": "receiver",
          "type": "address"
        }
      ],
      "name": "ERC721InvalidReceiver",
      "type": "error"
    },
    {
      "inputs": [
        {
          "internalType": "address",
          "name": "sender",
          "type": "address"
        }
      ],
      "name": "ERC721InvalidSender",
      "type": "error"
    },
    {
      "inputs": [
        {
          "internalType": "uint256",
          "name": "tokenId",
          "type": "uint256"
        }
      ],
      "name": "ERC721NonexistentToken",
      "type": "error"
    },
    {
      "anonymous": false,
      "inputs": [
        {
          "indexed": true,
          "internalType": "address",
          "name": "owner",
          "type": "address"
        },
        {
          "indexed": true,
          "internalType": "address",
          "name": "approved",
          "type": "address"
        },
        {
          "indexed": true,
          "internalType": "uint256",
          "name": "tokenId",
          "type": "uint256"
        }
      ],
      "name": "Approval",
      "type": "event"
    },
    {
      "anonymous": false,
      "inputs": [
        {
          "indexed": true,
          "internalType": "address",
          "name": "owner",
          "type": "address"
        },
        {
          "indexed": true,
          "internalType": "address",
          "name": "operator",
          "type": "address"
        },
        {
          "indexed": false,
          "internalType": "bool",
          "name": "approved",
          "type": "bool"
        }
      ],
      "name": "ApprovalForAll",
      "type": "event"
    },
    {
      "anonymous": false,
      "inputs": [
        {
          "indexed": true,
          "internalType": "address",
          "name": "from",
          "type": "address"
        },
        {
          "indexed": true,
          "internalType": "address",
          "name": "to",
          "type": "address"
        },
        {
          "indexed": true,
          "internalType": "uint256",
          "name": "tokenId",
          "type": "uint256"
        }
      ],
      "name": "Transfer",
      "type": "event"
    },
    {
      "inputs": [
        {
          "internalType": "address",
          "name": "to",
          "type": "address"
        },
        {
          "internalType": "uint256",
          "name": "tokenId",
          "type": "uint256"
        }
      ],
      "name": "approve",
      "outputs": [],
      "stateMutability": "nonpayable",
      "type": "function"
    },
    {
      "inputs": [
        {
          "internalType": "address",
          "name": "owner",
          "type": "address"
        }
      ],
      "name": "balanceOf",
      "outputs": [
        {
          "internalType": "uint256",
          "name": "",
          "type": "uint256"
        }
      ],
      "stateMutability": "view",
      "type": "function"
    },
    {
      "inputs": [
        {
          "internalType": "uint256",
          "name": "tokenId",
          "type": "uint256"
        }
      ],
      "name": "getApproved",
      "outputs": [
        {
          "internalType": "address",
          "name": "",
          "type": "address"
        }
      ],
      "stateMutability": "view",
      "type": "function"
    },
    {
      "inputs": [
        {
          "internalType": "address",
          "name": "owner",
          "type": "address"
        },
        {
          "internalType": "address",
          "name": "operator",
          "type": "address"
        }
      ],
      "name": "isApprovedForAll",
      "outputs": [
        {
          "internalType": "bool",
          "name": "",
          "type": "bool"
        }
      ],
      "stateMutability": "view",
      "type": "function"
    },
    {
      "inputs": [],
      "name": "name",
      "outputs": [
        {
          "internalType": "string",
          "name": "",
          "type": "string"
        }
      ],
      "stateMutability": "view",
      "type": "function"
    },
    {
      "inputs": [
        {
          "internalType": "uint256",
          "name": "tokenId",
          "type": "uint256"
        }
      ],
      "name": "ownerOf",
      "outputs": [
        {
          "internalType": "address",
          "name": "",
          "type": "address"
        }
      ],
      "stateMutability": "view",
      "type": "function"
    },
    {
      "inputs": [
        {
          "internalType": "address",
          "name": "from",
          "type": "address"
        },
        {
          "internalType": "address",
          "name": "to",
          "type": "address"
        },
        {
          "internalType": "uint256",
          "name": "tokenId",
          "type": "uint256"
        }
      ],
      "name": "safeTransferFrom",
      "outputs": [],
      "stateMutability": "nonpayable",
      "type": "function"
    },
    {
      "inputs": [
        {
          "internalType": "address",
          "name": "from",
          "type": "address"
        },
        {
          "internalType": "address",
          "name": "to",
          "type": "address"
        },
        {
          "internalType": "uint256",
          "name": "tokenId",
          "type": "uint256"
        },
        {
          "internalType": "bytes",
          "name": "data",
          "type": "bytes"
        }
      ],
      "name": "safeTransferFrom",
      "outputs": [],
      "stateMutability": "nonpayable",
      "type": "function"
    },
    {
      "inputs": [
        {
          "internalType": "address",
          "name": "operator",
          "type": "address"
        },
        {
          "internalType": "bool",
          "name": "approved",
          "type": "bool"
        }
      ],
      "name": "setApprovalForAll",
      "outputs": [],
      "stateMutability": "nonpayable",
      "type": "function"
    },
    {
      "inputs": [
        {
          "internalType": "bytes4",
          "name": "interfaceId",
          "type": "bytes4"
        }
      ],
      "name": "supportsInterface",
      "outputs": [
        {
          "internalType": "bool",
          "name": "",
          "type": "bool"
        }
      ],
      "stateMutability": "view",
      "type": "function"
    },
    {
      "inputs": [],
      "name": "symbol",
      "outputs": [
        {
          "internalType": "string",
          "name": "",
          "type": "string"
        }
      ],
      "stateMutability": "view",
      "type": "function"
    },
    {
      "inputs": [
        {
          "internalType": "uint256",
          "name": "tokenId",
          "type": "uint256"
        }
      ],
      "name": "tokenURI",
      "outputs": [
        {
          "internalType": "string",
          "name": "",
          "type": "string"
        }
      ],
      "stateMutability": "view",
      "type": "function"
    },
    {
      "inputs": [
        {
          "internalType": "uint256",
          "name": "_tokenId",
          "type": "uint256"
        }
      ],
      "name": "claimURI",
      "outputs": [
        {
          "internalType": "string",
          "name": "",
          "type": "string"
        }
      ],
      "stateMutability": "view",
      "type": "function"
    },
    {
      "inputs": [
        {
          "internalType": "uint256",
          "name": "_tokenId",
          "type": "uint256"
        }
      ],
      "name": "claimHash",
      "outputs": [
        {
          "internalType": "string",
          "name": "",
          "type": "string"
        }
      ],
      "stateMutability": "view",
      "type": "function"
    },
    {
      "inputs": [
        {
          "internalType": "uint256",
          "name": "_tokenId",
          "type": "uint256"
        }
      ],
      "name": "issuer",
      "outputs": [
        {
          "internalType": "address",
          "name": "",
          "type": "address"
        }
      ],
      "stateMutability": "view",
      "type": "function"
    },
    {
      "inputs": [
        {
          "internalType": "uint256",
          "name": "_tokenId",
          "type": "uint256"
        }
      ],
      "name": "issuerTokenID",
      "outputs": [
        {
          "internalType": "uint256",
          "name": "",
          "type": "uint256"
        }
      ],
      "stateMutability": "view",
      "type": "function"
    },
    {
      "inputs": [
        {
          "internalType": "uint256",
          "name": "_tokenId",
          "type": "uint256"
        }
      ],
      "name": "credential",
      "outputs": [
        {
          "components": [
            {
              "internalType": "string",
              "name": "ClaimURI",
              "type": "string"
            },
            {
              "internalType": "string",
              "name": "ClaimHash",
              "type": "string"
            },
            {
              "internalType": "address",
              "name": "Issuer",
              "type": "address"
            },
            {
              "internalType": "uint256",
              "name": "IssuerTokenID",
              "type": "uint256"
            }
          ],
          "internalType": "struct VCNFT.Credential",
          "name": "",
          "type": "tuple"
        }
      ],
      "stateMutability": "view",
      "type": "function"
    },
    {
      "inputs": [
        {
          "internalType": "address",
          "name": "_to",
          "type": "address"
        },
        {
          "internalType": "uint256",
          "name": "_tokenId",
          "type": "uint256"
        },
        {
          "internalType": "string",
          "name": "_claimURI",
          "type": "string"
        },
        {
          "internalType": "string",
          "name": "_claimHash",
          "type": "string"
        },
        {
          "internalType": "uint256",
          "name": "_issuerTokenID",
          "type": "uint256"
        }
      ],
      "name": "certify",
      "outputs": [],
      "stateMutability": "nonpayable",
      "type": "function"
    },
    {
      "inputs": [
        {
          "internalType": "uint256",
          "name": "tokenId",
          "type": "uint256"
        }
      ],
      "name": "revoke",
      "outputs": [],
      "stateMutability": "nonpayable",
      "type": "function"
    },
    {
      "inputs": [
        {
          "internalType": "address",
          "name": "from",
          "type": "address"
        },
        {
          "internalType": "address",
          "name": "to",
          "type": "address"
        },
        {
          "internalType": "uint256",
          "name": "tokenId",
          "type": "uint256"
        }
      ],
      "name": "transferFrom",
      "outputs": [],
      "stateMutability": "nonpayable",
      "type": "function"
    }
  ],
  "bytecode": "0x608060405234801562000010575f80fd5b5060405162001b0f38038062001b0f83398101604081905262000033916200011a565b81815f6200004283826200020c565b5060016200005182826200020c565b5050505050620002d4565b634e487b7160e01b5f52604160045260245ffd5b5f82601f83011262000080575f80fd5b81516001600160401b03808211156200009d576200009d6200005c565b604051601f8301601f19908116603f01168101908282118183101715620000c857620000c86200005c565b81604052838152602092508683858801011115620000e4575f80fd5b5f91505b83821015620001075785820183015181830184015290820190620000e8565b5f93810190920192909252949350505050565b5f80604083850312156200012c575f80fd5b82516001600160401b038082111562000143575f80fd5b620001518683870162000070565b9350602085015191508082111562000167575f80fd5b50620001768582860162000070565b9150509250929050565b600181811c908216806200019557607f821691505b602082108103620001b457634e487b7160e01b5f52602260045260245ffd5b50919050565b601f82111562000207575f81815260208120601f850160051c81016020861015620001e25750805b601f850160051c820191505b818110156200020357828155600101620001ee565b5050505b505050565b81516001600160401b038111156200022857620002286200005c565b620002408162000239845462000180565b84620001ba565b602080601f83116001811462000276575f84156200025e5750858301515b5f19600386901b1c1916600185901b17855562000203565b5f85815260208120601f198616915b82811015620002a65788860151825594840194600190910190840162000285565b5085821015620002c457878501515f19600388901b60f8161c191681555b5050505050600190811b01905550565b61182d80620002e25f395ff3fe608060405234801561000f575f80fd5b5060043610610126575f3560e01c80636352211e116100a9578063a9a155701161006e578063a9a155701461027b578063af54625b1461029b578063b88d4fde146102ae578063c87b56dd146102c1578063e985e9c5146102d4575f80fd5b80636352211e1461021957806370a082311461022c578063905ff2951461024d57806395d89b4114610260578063a22cb46514610268575f80fd5b8063095ea7b3116100ef578063095ea7b3146101b85780630a426c12146101cd57806320c5429b146101e057806323b872dd146101f357806342842e0e14610206575f80fd5b806268fe8b1461012a57806301ffc9a71461015a57806306fdde031461017d57806307bdd26d14610192578063081812fc146101a5575b5f80fd5b61013d61013836600461122f565b6102e7565b6040516001600160a01b0390911681526020015b60405180910390f35b61016d61016836600461125b565b610341565b6040519015158152602001610151565b610185610392565b60405161015191906112c3565b6101856101a036600461122f565b610421565b61013d6101b336600461122f565b6104f2565b6101cb6101c63660046112f0565b610519565b005b6101cb6101db36600461135d565b610528565b6101cb6101ee36600461122f565b610627565b6101cb6102013660046113e9565b610689565b6101cb6102143660046113e9565b610768565b61013d61022736600461122f565b610787565b61023f61023a366004611422565b610791565b604051908152602001610151565b61018561025b36600461122f565b6107d6565b610185610827565b6101cb61027636600461143b565b610836565b61028e61028936600461122f565b610841565b6040516101519190611474565b61023f6102a936600461122f565b610a01565b6101cb6102bc3660046114ec565b610a49565b6101856102cf36600461122f565b610a61565b61016d6102e23660046115c1565b610ad2565b5f818152600260205260408120546001600160a01b03166103235760405162461bcd60e51b815260040161031a906115f2565b60405180910390fd5b505f908152600660205260409020600201546001600160a01b031690565b5f6001600160e01b031982166380ac58cd60e01b148061037157506001600160e01b03198216635b5e139f60e01b145b8061038c57506301ffc9a760e01b6001600160e01b03198316145b92915050565b60605f80546103a090611639565b80601f01602080910402602001604051908101604052809291908181526020018280546103cc90611639565b80156104175780601f106103ee57610100808354040283529160200191610417565b820191905f5260205f20905b8154815290600101906020018083116103fa57829003601f168201915b5050505050905090565b5f818152600260205260409020546060906001600160a01b03166104575760405162461bcd60e51b815260040161031a906115f2565b5f828152600660205260409020805461046f90611639565b80601f016020809104026020016040519081016040528092919081815260200182805461049b90611639565b80156104e65780601f106104bd576101008083540402835291602001916104e6565b820191905f5260205f20905b8154815290600101906020018083116104c957829003601f168201915b50505050509050919050565b5f6104fc82610aff565b505f828152600460205260409020546001600160a01b031661038c565b610524828233610b37565b5050565b6105328787610b44565b604051806080016040528086868080601f0160208091040260200160405190810160405280939291908181526020018383808284375f92019190915250505090825250604080516020601f8701819004810282018101909252858152918101919086908690819084018382808284375f92018290525093855250503360208085019190915260409384018690528a8352600690525020815181906105d690826116b6565b50602082015160018201906105eb90826116b6565b5060408201516002820180546001600160a01b0319166001600160a01b0390921691909117905560609091015160039091015550505050505050565b6106313382610b5d565b61067d5760405162461bcd60e51b815260206004820152601b60248201527f56434e46543a2063616c6c6572206973206e6f74206973737565720000000000604482015260640161031a565b61068681610b94565b50565b6106933382610b5d565b6106df5760405162461bcd60e51b815260206004820152601b60248201527f56434e46543a2063616c6c6572206973206e6f74206973737565720000000000604482015260640161031a565b6001600160a01b03821661070857604051633250574960e11b81525f600482015260240161031a565b5f61071483835f610bcc565b9050836001600160a01b0316816001600160a01b031614610762576040516364283d7b60e01b81526001600160a01b038086166004830152602482018490528216604482015260640161031a565b50505050565b61078283838360405180602001604052805f815250610a49565b505050565b5f61038c82610aff565b5f6001600160a01b0382166107bb576040516322718ad960e21b81525f600482015260240161031a565b506001600160a01b03165f9081526003602052604090205490565b5f818152600260205260409020546060906001600160a01b031661080c5760405162461bcd60e51b815260040161031a906115f2565b5f828152600660205260409020600101805461046f90611639565b6060600180546103a090611639565b610524338383610cbe565b610873604051806080016040528060608152602001606081526020015f6001600160a01b031681526020015f81525090565b5f828152600260205260409020546001600160a01b03166108a65760405162461bcd60e51b815260040161031a906115f2565b5f82815260066020526040908190208151608081019092528054829082906108cd90611639565b80601f01602080910402602001604051908101604052809291908181526020018280546108f990611639565b80156109445780601f1061091b57610100808354040283529160200191610944565b820191905f5260205f20905b81548152906001019060200180831161092757829003601f168201915b5050505050815260200160018201805461095d90611639565b80601f016020809104026020016040519081016040528092919081815260200182805461098990611639565b80156109d45780601f106109ab576101008083540402835291602001916109d4565b820191905f5260205f20905b8154815290600101906020018083116109b757829003601f168201915b505050918352505060028201546001600160a01b0316602082015260039091015460409091015292915050565b5f818152600260205260408120546001600160a01b0316610a345760405162461bcd60e51b815260040161031a906115f2565b505f9081526006602052604090206003015490565b610a54848484610689565b6107623385858585610d5c565b6060610a6c82610aff565b505f610a8260408051602081019091525f815290565b90505f815111610aa05760405180602001604052805f815250610acb565b80610aaa84610e84565b604051602001610abb929190611772565b6040516020818303038152906040525b9392505050565b6001600160a01b039182165f90815260056020908152604080832093909416825291909152205460ff1690565b5f818152600260205260408120546001600160a01b03168061038c57604051637e27328960e01b81526004810184905260240161031a565b6107828383836001610f14565b610524828260405180602001604052805f815250611018565b5f6001600160a01b03831615801590610acb5750505f908152600660205260409020600201546001600160a01b0390811691161490565b5f610ba05f835f610bcc565b90506001600160a01b03811661052457604051637e27328960e01b81526004810183905260240161031a565b5f828152600260205260408120546001600160a01b0390811690831615610bf857610bf881848661102f565b6001600160a01b03811615610c3257610c135f855f80610f14565b6001600160a01b0381165f90815260036020526040902080545f190190555b6001600160a01b03851615610c60576001600160a01b0385165f908152600360205260409020805460010190555b5f8481526002602052604080822080546001600160a01b0319166001600160a01b0389811691821790925591518793918516917fddf252ad1be2c89b69c2b068fc378daa952ba7f163c4a11628f55a4df523b3ef91a4949350505050565b6001600160a01b038216610cf057604051630b61174360e31b81526001600160a01b038316600482015260240161031a565b6001600160a01b038381165f81815260056020908152604080832094871680845294825291829020805460ff191686151590811790915591519182527f17307eab39ab6107e8899845ad3d59bd9653f200f220920489ca2b5937696c31910160405180910390a3505050565b6001600160a01b0383163b15610e7d57604051630a85bd0160e11b81526001600160a01b0384169063150b7a0290610d9e9088908890879087906004016117a0565b6020604051808303815f875af1925050508015610dd8575060408051601f3d908101601f19168201909252610dd5918101906117dc565b60015b610e3f573d808015610e05576040519150601f19603f3d011682016040523d82523d5f602084013e610e0a565b606091505b5080515f03610e3757604051633250574960e11b81526001600160a01b038516600482015260240161031a565b805181602001fd5b6001600160e01b03198116630a85bd0160e11b14610e7b57604051633250574960e11b81526001600160a01b038516600482015260240161031a565b505b5050505050565b60605f610e9083611093565b60010190505f8167ffffffffffffffff811115610eaf57610eaf6114d8565b6040519080825280601f01601f191660200182016040528015610ed9576020820181803683370190505b5090508181016020015b5f19016f181899199a1a9b1b9c1cb0b131b232b360811b600a86061a8153600a8504945084610ee357509392505050565b8080610f2857506001600160a01b03821615155b15610fe9575f610f3784610aff565b90506001600160a01b03831615801590610f635750826001600160a01b0316816001600160a01b031614155b8015610f765750610f748184610ad2565b155b15610f9f5760405163a9fbf51f60e01b81526001600160a01b038416600482015260240161031a565b8115610fe75783856001600160a01b0316826001600160a01b03167f8c5be1e5ebec7d5bd14f71427d1e84f3dd0314c0f7b2291e5b200ac8c7c3b92560405160405180910390a45b505b50505f90815260046020526040902080546001600160a01b0319166001600160a01b0392909216919091179055565b611022838361116a565b610782335f858585610d5c565b61103a8383836111cb565b610782576001600160a01b03831661106857604051637e27328960e01b81526004810182905260240161031a565b60405163177e802f60e01b81526001600160a01b03831660048201526024810182905260440161031a565b5f8072184f03e93ff9f4daa797ed6e38ed64bf6a1f0160401b83106110d15772184f03e93ff9f4daa797ed6e38ed64bf6a1f0160401b830492506040015b6d04ee2d6d415b85acef810000000083106110fd576d04ee2d6d415b85acef8100000000830492506020015b662386f26fc10000831061111b57662386f26fc10000830492506010015b6305f5e1008310611133576305f5e100830492506008015b612710831061114757612710830492506004015b60648310611159576064830492506002015b600a831061038c5760010192915050565b6001600160a01b03821661119357604051633250574960e11b81525f600482015260240161031a565b5f61119f83835f610bcc565b90506001600160a01b03811615610782576040516339e3563760e11b81525f600482015260240161031a565b5f6001600160a01b038316158015906112275750826001600160a01b0316846001600160a01b0316148061120457506112048484610ad2565b8061122757505f828152600460205260409020546001600160a01b038481169116145b949350505050565b5f6020828403121561123f575f80fd5b5035919050565b6001600160e01b031981168114610686575f80fd5b5f6020828403121561126b575f80fd5b8135610acb81611246565b5f5b83811015611290578181015183820152602001611278565b50505f910152565b5f81518084526112af816020860160208601611276565b601f01601f19169290920160200192915050565b602081525f610acb6020830184611298565b80356001600160a01b03811681146112eb575f80fd5b919050565b5f8060408385031215611301575f80fd5b61130a836112d5565b946020939093013593505050565b5f8083601f840112611328575f80fd5b50813567ffffffffffffffff81111561133f575f80fd5b602083019150836020828501011115611356575f80fd5b9250929050565b5f805f805f805f60a0888a031215611373575f80fd5b61137c886112d5565b965060208801359550604088013567ffffffffffffffff8082111561139f575f80fd5b6113ab8b838c01611318565b909750955060608a01359150808211156113c3575f80fd5b506113d08a828b01611318565b989b979a50959894979596608090950135949350505050565b5f805f606084860312156113fb575f80fd5b611404846112d5565b9250611412602085016112d5565b9150604084013590509250925092565b5f60208284031215611432575f80fd5b610acb826112d5565b5f806040838503121561144c575f80fd5b611455836112d5565b915060208301358015158114611469575f80fd5b809150509250929050565b602081525f82516080602084015261148f60a0840182611298565b90506020840151601f198483030160408501526114ac8282611298565b60408601516001600160a01b031660608681019190915290950151608090940193909352509192915050565b634e487b7160e01b5f52604160045260245ffd5b5f805f80608085870312156114ff575f80fd5b611508856112d5565b9350611516602086016112d5565b925060408501359150606085013567ffffffffffffffff80821115611539575f80fd5b818701915087601f83011261154c575f80fd5b81358181111561155e5761155e6114d8565b604051601f8201601f19908116603f01168101908382118183101715611586576115866114d8565b816040528281528a602084870101111561159e575f80fd5b826020860160208301375f60208483010152809550505050505092959194509250565b5f80604083850312156115d2575f80fd5b6115db836112d5565b91506115e9602084016112d5565b90509250929050565b60208082526027908201527f56434e46543a2055524920717565727920666f72206e6f6e6578697374656e74604082015266103a37b5b2b71760c91b606082015260800190565b600181811c9082168061164d57607f821691505b60208210810361166b57634e487b7160e01b5f52602260045260245ffd5b50919050565b601f821115610782575f81815260208120601f850160051c810160208610156116975750805b601f850160051c820191505b81811015610e7b578281556001016116a3565b815167ffffffffffffffff8111156116d0576116d06114d8565b6116e4816116de8454611639565b84611671565b602080601f831160018114611717575f84156117005750858301515b5f19600386901b1c1916600185901b178555610e7b565b5f85815260208120601f198616915b8281101561174557888601518255948401946001909101908401611726565b508582101561176257878501515f19600388901b60f8161c191681555b5050505050600190811b01905550565b5f8351611783818460208801611276565b835190830190611797818360208801611276565b01949350505050565b6001600160a01b03858116825284166020820152604081018390526080606082018190525f906117d290830184611298565b9695505050505050565b5f602082840312156117ec575f80fd5b8151610acb8161124656fea264697066735822122073ab65af54aac0737ac04528d7987d23f4faf69cb992b92e7b912f2d84ac60e864736f6c63430008140033",
  "immutableReferences": {},
  "source": "// SPDX-License-Identifier: MIT\n\n/**\n * Author: Jhone Seo <kjseo@blocko.io>\n * Github: https://github.com/kjunblk\n */\n\npragma solidity ^0.8.20 ;\n\nimport \"@openzeppelin/contracts/token/ERC721/ERC721.sol\";\n\ncontract VCNFT is ERC721 {\n\n\tusing Strings for uint256;\n\n\tstruct Credential{\n\t\tstring  ClaimURI;\n\t\tstring  ClaimHash;\n\t\taddress Issuer;\n\t\tuint256 IssuerTokenID;\n\t}\n    \n\tmapping(uint256=>Credential) private _credentials;\n\n\tconstructor(string memory _name, string memory _symbol) ERC721(_name, _symbol) {\n\t}\n\n\tfunction _isIssuer(address spender, uint256 tokenId) internal view virtual returns (bool) {\n\t\treturn spender != address(0) && _credentials[tokenId].Issuer == spender ;\n\t}\n\n\tfunction _exists(uint256 tokenId) internal view virtual returns (bool) {\n\t\treturn _ownerOf(tokenId) != address(0) ;\n\t}\n\n\t// =====================\n\n\t// Get claimURI\n\tfunction claimURI(uint256 _tokenId) public view returns (string memory) {\n\t\trequire(_exists(_tokenId), \"VCNFT: URI query for nonexistent token.\");\n\t\treturn _credentials[_tokenId].ClaimURI ;\n\t}\n\n\t// Get claimHash\n\tfunction claimHash(uint256 _tokenId) public view returns (string memory) {\n\t\trequire(_exists(_tokenId), \"VCNFT: URI query for nonexistent token.\");\n\t\treturn _credentials[_tokenId].ClaimHash ;\n\t}\n\n\t// Get issuer\n\tfunction issuer(uint256 _tokenId) public view returns (address) {\n\t\trequire(_exists(_tokenId), \"VCNFT: URI query for nonexistent token.\");\n\t\treturn _credentials[_tokenId].Issuer ;\n\t}\n\n\t// Get issuerTokenID\n\tfunction issuerTokenID(uint256 _tokenId) public view returns (uint256) {\n\t\trequire(_exists(_tokenId), \"VCNFT: URI query for nonexistent token.\");\n\t\treturn _credentials[_tokenId].IssuerTokenID ;\n\t}\n\n\t// Get credential\n\tfunction credential(uint256 _tokenId) public view returns (Credential memory) {\n\t\trequire(_exists(_tokenId), \"VCNFT: URI query for nonexistent token.\");\n\t\treturn _credentials[_tokenId] ;\n\t}\n\n\t// =====================\n\n\t// certify --> mint\n\tfunction certify(address _to, uint256 _tokenId, string calldata _claimURI, string calldata _claimHash, uint256 _issuerTokenID) public virtual {\n\t\t_safeMint(_to, _tokenId);\n\t\t_credentials[_tokenId] = Credential(_claimURI, _claimHash, msg.sender, _issuerTokenID);\n\t}\n\n\t// revoke --> burn\n\tfunction revoke(uint256 tokenId) public virtual {\n\t\trequire(_isIssuer(msg.sender, tokenId), \"VCNFT: caller is not issuer\");\n\t\t_burn(tokenId);\n\t}\n\n\tfunction transferFrom(address from, address to, uint256 tokenId) public virtual override {\n   \t\trequire(_isIssuer(msg.sender, tokenId), \"VCNFT: caller is not issuer\");\n\n\t\tif (to == address(0)) {\n            revert ERC721InvalidReceiver(address(0));\n        }\n\n\t\taddress previousOwner = _update(to, tokenId, address(0));\n        if (previousOwner != from) {\n            revert ERC721IncorrectOwner(from, tokenId, previousOwner);\n        }\n    }\n}",
  "sourcePath": "/Users/seo/VCNFT/contracts/VCNFT.sol",
  "compiler": {
    "name": "solc",
    "version": "0.8.20+commit.a1b79de6.Emscripten.clang"
  },
  "schemaVersion": "3.4.16",
  "updatedAt": "2024-10-31T04:10:48.989Z",
  "devdoc": {
    "errors": {
      "ERC721IncorrectOwner(address,uint256,address)": [
        {
          "details": "Indicates an error related to the ownership over a particular token. Used in transfers.",
          "params": {
            "owner": "Address of the current owner of a token.",
            "sender": "Address whose tokens are being transferred.",
            "tokenId": "Identifier number of a token."
          }
        }
      ],
      "ERC721InsufficientApproval(address,uint256)": [
        {
          "details": "Indicates a failure with the `operator`s approval. Used in transfers.",
          "params": {
            "operator": "Address that may be allowed to operate on tokens without being their owner.",
            "tokenId": "Identifier number of a token."
          }
        }
      ],
      "ERC721InvalidApprover(address)": [
        {
          "details": "Indicates a failure with the `approver` of a token to be approved. Used in approvals.",
          "params": {
            "approver": "Address initiating an approval operation."
          }
        }
      ],
      "ERC721InvalidOperator(address)": [
        {
          "details": "Indicates a failure with the `operator` to be approved. Used in approvals.",
          "params": {
            "operator": "Address that may be allowed to operate on tokens without being their owner."
          }
        }
      ],
      "ERC721InvalidOwner(address)": [
        {
          "details": "Indicates that an address can't be an owner. For example, `address(0)` is a forbidden owner in ERC-20. Used in balance queries.",
          "params": {
            "owner": "Address of the current owner of a token."
          }
        }
      ],
      "ERC721InvalidReceiver(address)": [
        {
          "details": "Indicates a failure with the token `receiver`. Used in transfers.",
          "params": {
            "receiver": "Address to which tokens are being transferred."
          }
        }
      ],
      "ERC721InvalidSender(address)": [
        {
          "details": "Indicates a failure with the token `sender`. Used in transfers.",
          "params": {
            "sender": "Address whose tokens are being transferred."
          }
        }
      ],
      "ERC721NonexistentToken(uint256)": [
        {
          "details": "Indicates a `tokenId` whose `owner` is the zero address.",
          "params": {
            "tokenId": "Identifier number of a token."
          }
        }
      ]
    },
    "events": {
      "Approval(address,address,uint256)": {
        "details": "Emitted when `owner` enables `approved` to manage the `tokenId` token."
      },
      "ApprovalForAll(address,address,bool)": {
        "details": "Emitted when `owner` enables or disables (`approved`) `operator` to manage all of its assets."
      },
      "Transfer(address,address,uint256)": {
        "details": "Emitted when `tokenId` token is transferred from `from` to `to`."
      }
    },
    "kind": "dev",
    "methods": {
      "approve(address,uint256)": {
        "details": "See {IERC721-approve}."
      },
      "balanceOf(address)": {
        "details": "See {IERC721-balanceOf}."
      },
      "getApproved(uint256)": {
        "details": "See {IERC721-getApproved}."
      },
      "isApprovedForAll(address,address)": {
        "details": "See {IERC721-isApprovedForAll}."
      },
      "name()": {
        "details": "See {IERC721Metadata-name}."
      },
      "ownerOf(uint256)": {
        "details": "See {IERC721-ownerOf}."
      },
      "safeTransferFrom(address,address,uint256)": {
        "details": "See {IERC721-safeTransferFrom}."
      },
      "safeTransferFrom(address,address,uint256,bytes)": {
        "details": "See {IERC721-safeTransferFrom}."
      },
      "setApprovalForAll(address,bool)": {
        "details": "See {IERC721-setApprovalForAll}."
      },
      "supportsInterface(bytes4)": {
        "details": "See {IERC165-supportsInterface}."
      },
      "symbol()": {
        "details": "See {IERC721Metadata-symbol}."
      },
      "tokenURI(uint256)": {
        "details": "See {IERC721Metadata-tokenURI}."
      },
      "transferFrom(address,address,uint256)": {
        "details": "See {IERC721-transferFrom}."
      }
    },
    "version": 1
  },
  "userdoc": {
    "kind": "user",
    "methods": {},
    "version": 1
  }
}