{
  "contractName": "VCNFT",
  "abi": [
    {
      "inputs": [
        {
          "internalType": "string",
          "name": "_name",
          "type": "string"
        },
        {
          "internalType": "string",
          "name": "_symbol",
          "type": "string"
        }
      ],
      "stateMutability": "nonpayable",
      "type": "constructor"
    },
    {
      "inputs": [
        {
          "internalType": "address",
          "name": "sender",
          "type": "address"
        },
        {
          "internalType": "uint256",
          "name": "tokenId",
          "type": "uint256"
        },
        {
          "internalType": "address",
          "name": "owner",
          "type": "address"
        }
      ],
      "name": "ERC721IncorrectOwner",
      "type": "error"
    },
    {
      "inputs": [
        {
          "internalType": "address",
          "name": "operator",
          "type": "address"
        },
        {
          "internalType": "uint256",
          "name": "tokenId",
          "type": "uint256"
        }
      ],
      "name": "ERC721InsufficientApproval",
      "type": "error"
    },
    {
      "inputs": [
        {
          "internalType": "address",
          "name": "approver",
          "type": "address"
        }
      ],
      "name": "ERC721InvalidApprover",
      "type": "error"
    },
    {
      "inputs": [
        {
          "internalType": "address",
          "name": "operator",
          "type": "address"
        }
      ],
      "name": "ERC721InvalidOperator",
      "type": "error"
    },
    {
      "inputs": [
        {
          "internalType": "address",
          "name": "owner",
          "type": "address"
        }
      ],
      "name": "ERC721InvalidOwner",
      "type": "error"
    },
    {
      "inputs": [
        {
          "internalType": "address",
          "name": "receiver",
          "type": "address"
        }
      ],
      "name": "ERC721InvalidReceiver",
      "type": "error"
    },
    {
      "inputs": [
        {
          "internalType": "address",
          "name": "sender",
          "type": "address"
        }
      ],
      "name": "ERC721InvalidSender",
      "type": "error"
    },
    {
      "inputs": [
        {
          "internalType": "uint256",
          "name": "tokenId",
          "type": "uint256"
        }
      ],
      "name": "ERC721NonexistentToken",
      "type": "error"
    },
    {
      "anonymous": false,
      "inputs": [
        {
          "indexed": true,
          "internalType": "address",
          "name": "owner",
          "type": "address"
        },
        {
          "indexed": true,
          "internalType": "address",
          "name": "approved",
          "type": "address"
        },
        {
          "indexed": true,
          "internalType": "uint256",
          "name": "tokenId",
          "type": "uint256"
        }
      ],
      "name": "Approval",
      "type": "event"
    },
    {
      "anonymous": false,
      "inputs": [
        {
          "indexed": true,
          "internalType": "address",
          "name": "owner",
          "type": "address"
        },
        {
          "indexed": true,
          "internalType": "address",
          "name": "operator",
          "type": "address"
        },
        {
          "indexed": false,
          "internalType": "bool",
          "name": "approved",
          "type": "bool"
        }
      ],
      "name": "ApprovalForAll",
      "type": "event"
    },
    {
      "anonymous": false,
      "inputs": [
        {
          "indexed": true,
          "internalType": "address",
          "name": "from",
          "type": "address"
        },
        {
          "indexed": true,
          "internalType": "address",
          "name": "to",
          "type": "address"
        },
        {
          "indexed": true,
          "internalType": "uint256",
          "name": "tokenId",
          "type": "uint256"
        }
      ],
      "name": "Transfer",
      "type": "event"
    },
    {
      "inputs": [
        {
          "internalType": "address",
          "name": "to",
          "type": "address"
        },
        {
          "internalType": "uint256",
          "name": "tokenId",
          "type": "uint256"
        }
      ],
      "name": "approve",
      "outputs": [],
      "stateMutability": "nonpayable",
      "type": "function"
    },
    {
      "inputs": [
        {
          "internalType": "address",
          "name": "owner",
          "type": "address"
        }
      ],
      "name": "balanceOf",
      "outputs": [
        {
          "internalType": "uint256",
          "name": "",
          "type": "uint256"
        }
      ],
      "stateMutability": "view",
      "type": "function"
    },
    {
      "inputs": [
        {
          "internalType": "uint256",
          "name": "tokenId",
          "type": "uint256"
        }
      ],
      "name": "getApproved",
      "outputs": [
        {
          "internalType": "address",
          "name": "",
          "type": "address"
        }
      ],
      "stateMutability": "view",
      "type": "function"
    },
    {
      "inputs": [
        {
          "internalType": "address",
          "name": "owner",
          "type": "address"
        },
        {
          "internalType": "address",
          "name": "operator",
          "type": "address"
        }
      ],
      "name": "isApprovedForAll",
      "outputs": [
        {
          "internalType": "bool",
          "name": "",
          "type": "bool"
        }
      ],
      "stateMutability": "view",
      "type": "function"
    },
    {
      "inputs": [],
      "name": "name",
      "outputs": [
        {
          "internalType": "string",
          "name": "",
          "type": "string"
        }
      ],
      "stateMutability": "view",
      "type": "function"
    },
    {
      "inputs": [
        {
          "internalType": "uint256",
          "name": "tokenId",
          "type": "uint256"
        }
      ],
      "name": "ownerOf",
      "outputs": [
        {
          "internalType": "address",
          "name": "",
          "type": "address"
        }
      ],
      "stateMutability": "view",
      "type": "function"
    },
    {
      "inputs": [
        {
          "internalType": "address",
          "name": "from",
          "type": "address"
        },
        {
          "internalType": "address",
          "name": "to",
          "type": "address"
        },
        {
          "internalType": "uint256",
          "name": "tokenId",
          "type": "uint256"
        }
      ],
      "name": "safeTransferFrom",
      "outputs": [],
      "stateMutability": "nonpayable",
      "type": "function"
    },
    {
      "inputs": [
        {
          "internalType": "address",
          "name": "from",
          "type": "address"
        },
        {
          "internalType": "address",
          "name": "to",
          "type": "address"
        },
        {
          "internalType": "uint256",
          "name": "tokenId",
          "type": "uint256"
        },
        {
          "internalType": "bytes",
          "name": "data",
          "type": "bytes"
        }
      ],
      "name": "safeTransferFrom",
      "outputs": [],
      "stateMutability": "nonpayable",
      "type": "function"
    },
    {
      "inputs": [
        {
          "internalType": "address",
          "name": "operator",
          "type": "address"
        },
        {
          "internalType": "bool",
          "name": "approved",
          "type": "bool"
        }
      ],
      "name": "setApprovalForAll",
      "outputs": [],
      "stateMutability": "nonpayable",
      "type": "function"
    },
    {
      "inputs": [
        {
          "internalType": "bytes4",
          "name": "interfaceId",
          "type": "bytes4"
        }
      ],
      "name": "supportsInterface",
      "outputs": [
        {
          "internalType": "bool",
          "name": "",
          "type": "bool"
        }
      ],
      "stateMutability": "view",
      "type": "function"
    },
    {
      "inputs": [],
      "name": "symbol",
      "outputs": [
        {
          "internalType": "string",
          "name": "",
          "type": "string"
        }
      ],
      "stateMutability": "view",
      "type": "function"
    },
    {
      "inputs": [
        {
          "internalType": "uint256",
          "name": "tokenId",
          "type": "uint256"
        }
      ],
      "name": "tokenURI",
      "outputs": [
        {
          "internalType": "string",
          "name": "",
          "type": "string"
        }
      ],
      "stateMutability": "view",
      "type": "function"
    },
    {
      "inputs": [
        {
          "internalType": "uint256",
          "name": "_tokenId",
          "type": "uint256"
        }
      ],
      "name": "claimURI",
      "outputs": [
        {
          "internalType": "string",
          "name": "",
          "type": "string"
        }
      ],
      "stateMutability": "view",
      "type": "function"
    },
    {
      "inputs": [
        {
          "internalType": "uint256",
          "name": "_tokenId",
          "type": "uint256"
        }
      ],
      "name": "claimHash",
      "outputs": [
        {
          "internalType": "string",
          "name": "",
          "type": "string"
        }
      ],
      "stateMutability": "view",
      "type": "function"
    },
    {
      "inputs": [
        {
          "internalType": "uint256",
          "name": "_tokenId",
          "type": "uint256"
        }
      ],
      "name": "issuer",
      "outputs": [
        {
          "internalType": "address",
          "name": "",
          "type": "address"
        }
      ],
      "stateMutability": "view",
      "type": "function"
    },
    {
      "inputs": [
        {
          "internalType": "uint256",
          "name": "_tokenId",
          "type": "uint256"
        }
      ],
      "name": "issuerTokenID",
      "outputs": [
        {
          "internalType": "uint256",
          "name": "",
          "type": "uint256"
        }
      ],
      "stateMutability": "view",
      "type": "function"
    },
    {
      "inputs": [
        {
          "internalType": "address",
          "name": "_to",
          "type": "address"
        },
        {
          "internalType": "uint256",
          "name": "_tokenId",
          "type": "uint256"
        },
        {
          "internalType": "string",
          "name": "_claimURI",
          "type": "string"
        },
        {
          "internalType": "string",
          "name": "_claimHash",
          "type": "string"
        },
        {
          "internalType": "uint256",
          "name": "_issuerTokenID",
          "type": "uint256"
        }
      ],
      "name": "certify",
      "outputs": [],
      "stateMutability": "nonpayable",
      "type": "function"
    },
    {
      "inputs": [
        {
          "internalType": "uint256",
          "name": "tokenId",
          "type": "uint256"
        }
      ],
      "name": "revoke",
      "outputs": [],
      "stateMutability": "nonpayable",
      "type": "function"
    },
    {
      "inputs": [
        {
          "internalType": "address",
          "name": "from",
          "type": "address"
        },
        {
          "internalType": "address",
          "name": "to",
          "type": "address"
        },
        {
          "internalType": "uint256",
          "name": "tokenId",
          "type": "uint256"
        }
      ],
      "name": "transferFrom",
      "outputs": [],
      "stateMutability": "nonpayable",
      "type": "function"
    }
  ],
  "bytecode": "0x608060405234801562000010575f80fd5b50604051620018f4380380620018f483398101604081905262000033916200011a565b81815f6200004283826200020c565b5060016200005182826200020c565b5050505050620002d4565b634e487b7160e01b5f52604160045260245ffd5b5f82601f83011262000080575f80fd5b81516001600160401b03808211156200009d576200009d6200005c565b604051601f8301601f19908116603f01168101908282118183101715620000c857620000c86200005c565b81604052838152602092508683858801011115620000e4575f80fd5b5f91505b83821015620001075785820183015181830184015290820190620000e8565b5f93810190920192909252949350505050565b5f80604083850312156200012c575f80fd5b82516001600160401b038082111562000143575f80fd5b620001518683870162000070565b9350602085015191508082111562000167575f80fd5b50620001768582860162000070565b9150509250929050565b600181811c908216806200019557607f821691505b602082108103620001b457634e487b7160e01b5f52602260045260245ffd5b50919050565b601f82111562000207575f81815260208120601f850160051c81016020861015620001e25750805b601f850160051c820191505b818110156200020357828155600101620001ee565b5050505b505050565b81516001600160401b038111156200022857620002286200005c565b620002408162000239845462000180565b84620001ba565b602080601f83116001811462000276575f84156200025e5750858301515b5f19600386901b1c1916600185901b17855562000203565b5f85815260208120601f198616915b82811015620002a65788860151825594840194600190910190840162000285565b5085821015620002c457878501515f19600388901b60f8161c191681555b5050505050600190811b01905550565b61161280620002e25f395ff3fe608060405234801561000f575f80fd5b506004361061011b575f3560e01c806342842e0e116100a9578063a22cb4651161006e578063a22cb4651461025d578063af54625b14610270578063b88d4fde14610283578063c87b56dd14610296578063e985e9c5146102a9575f80fd5b806342842e0e146101fb5780636352211e1461020e57806370a0823114610221578063905ff2951461024257806395d89b4114610255575f80fd5b8063081812fc116100ef578063081812fc1461019a578063095ea7b3146101ad5780630a426c12146101c257806320c5429b146101d557806323b872dd146101e8575f80fd5b806268fe8b1461011f57806301ffc9a71461014f57806306fdde031461017257806307bdd26d14610187575b5f80fd5b61013261012d366004611078565b6102bc565b6040516001600160a01b0390911681526020015b60405180910390f35b61016261015d3660046110a4565b610316565b6040519015158152602001610146565b61017a610367565b604051610146919061110c565b61017a610195366004611078565b6103f6565b6101326101a8366004611078565b6104c7565b6101c06101bb366004611139565b6104ee565b005b6101c06101d03660046111a6565b6104fd565b6101c06101e3366004611078565b6105fc565b6101c06101f6366004611232565b61065e565b6101c0610209366004611232565b610771565b61013261021c366004611078565b610790565b61023461022f36600461126b565b61079a565b604051908152602001610146565b61017a610250366004611078565b6107df565b61017a610830565b6101c061026b366004611284565b61083f565b61023461027e366004611078565b61084a565b6101c06102913660046112d1565b610892565b61017a6102a4366004611078565b6108aa565b6101626102b73660046113a6565b61091b565b5f818152600260205260408120546001600160a01b03166102f85760405162461bcd60e51b81526004016102ef906113d7565b60405180910390fd5b505f908152600660205260409020600201546001600160a01b031690565b5f6001600160e01b031982166380ac58cd60e01b148061034657506001600160e01b03198216635b5e139f60e01b145b8061036157506301ffc9a760e01b6001600160e01b03198316145b92915050565b60605f80546103759061141e565b80601f01602080910402602001604051908101604052809291908181526020018280546103a19061141e565b80156103ec5780601f106103c3576101008083540402835291602001916103ec565b820191905f5260205f20905b8154815290600101906020018083116103cf57829003601f168201915b5050505050905090565b5f818152600260205260409020546060906001600160a01b031661042c5760405162461bcd60e51b81526004016102ef906113d7565b5f82815260066020526040902080546104449061141e565b80601f01602080910402602001604051908101604052809291908181526020018280546104709061141e565b80156104bb5780601f10610492576101008083540402835291602001916104bb565b820191905f5260205f20905b81548152906001019060200180831161049e57829003601f168201915b50505050509050919050565b5f6104d182610948565b505f828152600460205260409020546001600160a01b0316610361565b6104f9828233610980565b5050565b610507878761098d565b604051806080016040528086868080601f0160208091040260200160405190810160405280939291908181526020018383808284375f92019190915250505090825250604080516020601f8701819004810282018101909252858152918101919086908690819084018382808284375f92018290525093855250503360208085019190915260409384018690528a8352600690525020815181906105ab908261149b565b50602082015160018201906105c0908261149b565b5060408201516002820180546001600160a01b0319166001600160a01b0390921691909117905560609091015160039091015550505050505050565b61060633826109a6565b6106525760405162461bcd60e51b815260206004820152601b60248201527f56434e46543a2063616c6c6572206973206e6f7420697373756572000000000060448201526064016102ef565b61065b816109dd565b50565b61066833826109a6565b6106b45760405162461bcd60e51b815260206004820152601b60248201527f56434e46543a2063616c6c6572206973206e6f7420697373756572000000000060448201526064016102ef565b6001600160a01b03831661070a5760405162461bcd60e51b815260206004820152601f60248201527f56434e46543a2066726f6d206164647265737320697320696e766c616c69640060448201526064016102ef565b6001600160a01b0382166107605760405162461bcd60e51b815260206004820152601c60248201527f56434e46543a20746f2061646472657373697320696e766c616c69640000000060448201526064016102ef565b61076b828233610a15565b50505050565b61078b83838360405180602001604052805f815250610892565b505050565b5f61036182610948565b5f6001600160a01b0382166107c4576040516322718ad960e21b81525f60048201526024016102ef565b506001600160a01b03165f9081526003602052604090205490565b5f818152600260205260409020546060906001600160a01b03166108155760405162461bcd60e51b81526004016102ef906113d7565b5f82815260066020526040902060010180546104449061141e565b6060600180546103759061141e565b6104f9338383610b07565b5f818152600260205260408120546001600160a01b031661087d5760405162461bcd60e51b81526004016102ef906113d7565b505f9081526006602052604090206003015490565b61089d84848461065e565b61076b3385858585610ba5565b60606108b582610948565b505f6108cb60408051602081019091525f815290565b90505f8151116108e95760405180602001604052805f815250610914565b806108f384610ccd565b604051602001610904929190611557565b6040516020818303038152906040525b9392505050565b6001600160a01b039182165f90815260056020908152604080832093909416825291909152205460ff1690565b5f818152600260205260408120546001600160a01b03168061036157604051637e27328960e01b8152600481018490526024016102ef565b61078b8383836001610d5d565b6104f9828260405180602001604052805f815250610e61565b5f6001600160a01b038316158015906109145750505f908152600660205260409020600201546001600160a01b0390811691161490565b5f6109e95f835f610a15565b90506001600160a01b0381166104f957604051637e27328960e01b8152600481018390526024016102ef565b5f828152600260205260408120546001600160a01b0390811690831615610a4157610a41818486610e78565b6001600160a01b03811615610a7b57610a5c5f855f80610d5d565b6001600160a01b0381165f90815260036020526040902080545f190190555b6001600160a01b03851615610aa9576001600160a01b0385165f908152600360205260409020805460010190555b5f8481526002602052604080822080546001600160a01b0319166001600160a01b0389811691821790925591518793918516917fddf252ad1be2c89b69c2b068fc378daa952ba7f163c4a11628f55a4df523b3ef91a4949350505050565b6001600160a01b038216610b3957604051630b61174360e31b81526001600160a01b03831660048201526024016102ef565b6001600160a01b038381165f81815260056020908152604080832094871680845294825291829020805460ff191686151590811790915591519182527f17307eab39ab6107e8899845ad3d59bd9653f200f220920489ca2b5937696c31910160405180910390a3505050565b6001600160a01b0383163b15610cc657604051630a85bd0160e11b81526001600160a01b0384169063150b7a0290610be7908890889087908790600401611585565b6020604051808303815f875af1925050508015610c21575060408051601f3d908101601f19168201909252610c1e918101906115c1565b60015b610c88573d808015610c4e576040519150601f19603f3d011682016040523d82523d5f602084013e610c53565b606091505b5080515f03610c8057604051633250574960e11b81526001600160a01b03851660048201526024016102ef565b805181602001fd5b6001600160e01b03198116630a85bd0160e11b14610cc457604051633250574960e11b81526001600160a01b03851660048201526024016102ef565b505b5050505050565b60605f610cd983610edc565b60010190505f8167ffffffffffffffff811115610cf857610cf86112bd565b6040519080825280601f01601f191660200182016040528015610d22576020820181803683370190505b5090508181016020015b5f19016f181899199a1a9b1b9c1cb0b131b232b360811b600a86061a8153600a8504945084610d2c57509392505050565b8080610d7157506001600160a01b03821615155b15610e32575f610d8084610948565b90506001600160a01b03831615801590610dac5750826001600160a01b0316816001600160a01b031614155b8015610dbf5750610dbd818461091b565b155b15610de85760405163a9fbf51f60e01b81526001600160a01b03841660048201526024016102ef565b8115610e305783856001600160a01b0316826001600160a01b03167f8c5be1e5ebec7d5bd14f71427d1e84f3dd0314c0f7b2291e5b200ac8c7c3b92560405160405180910390a45b505b50505f90815260046020526040902080546001600160a01b0319166001600160a01b0392909216919091179055565b610e6b8383610fb3565b61078b335f858585610ba5565b610e83838383611014565b61078b576001600160a01b038316610eb157604051637e27328960e01b8152600481018290526024016102ef565b60405163177e802f60e01b81526001600160a01b0383166004820152602481018290526044016102ef565b5f8072184f03e93ff9f4daa797ed6e38ed64bf6a1f0160401b8310610f1a5772184f03e93ff9f4daa797ed6e38ed64bf6a1f0160401b830492506040015b6d04ee2d6d415b85acef81000000008310610f46576d04ee2d6d415b85acef8100000000830492506020015b662386f26fc100008310610f6457662386f26fc10000830492506010015b6305f5e1008310610f7c576305f5e100830492506008015b6127108310610f9057612710830492506004015b60648310610fa2576064830492506002015b600a83106103615760010192915050565b6001600160a01b038216610fdc57604051633250574960e11b81525f60048201526024016102ef565b5f610fe883835f610a15565b90506001600160a01b0381161561078b576040516339e3563760e11b81525f60048201526024016102ef565b5f6001600160a01b038316158015906110705750826001600160a01b0316846001600160a01b0316148061104d575061104d848461091b565b8061107057505f828152600460205260409020546001600160a01b038481169116145b949350505050565b5f60208284031215611088575f80fd5b5035919050565b6001600160e01b03198116811461065b575f80fd5b5f602082840312156110b4575f80fd5b81356109148161108f565b5f5b838110156110d95781810151838201526020016110c1565b50505f910152565b5f81518084526110f88160208601602086016110bf565b601f01601f19169290920160200192915050565b602081525f61091460208301846110e1565b80356001600160a01b0381168114611134575f80fd5b919050565b5f806040838503121561114a575f80fd5b6111538361111e565b946020939093013593505050565b5f8083601f840112611171575f80fd5b50813567ffffffffffffffff811115611188575f80fd5b60208301915083602082850101111561119f575f80fd5b9250929050565b5f805f805f805f60a0888a0312156111bc575f80fd5b6111c58861111e565b965060208801359550604088013567ffffffffffffffff808211156111e8575f80fd5b6111f48b838c01611161565b909750955060608a013591508082111561120c575f80fd5b506112198a828b01611161565b989b979a50959894979596608090950135949350505050565b5f805f60608486031215611244575f80fd5b61124d8461111e565b925061125b6020850161111e565b9150604084013590509250925092565b5f6020828403121561127b575f80fd5b6109148261111e565b5f8060408385031215611295575f80fd5b61129e8361111e565b9150602083013580151581146112b2575f80fd5b809150509250929050565b634e487b7160e01b5f52604160045260245ffd5b5f805f80608085870312156112e4575f80fd5b6112ed8561111e565b93506112fb6020860161111e565b925060408501359150606085013567ffffffffffffffff8082111561131e575f80fd5b818701915087601f830112611331575f80fd5b813581811115611343576113436112bd565b604051601f8201601f19908116603f0116810190838211818310171561136b5761136b6112bd565b816040528281528a6020848701011115611383575f80fd5b826020860160208301375f60208483010152809550505050505092959194509250565b5f80604083850312156113b7575f80fd5b6113c08361111e565b91506113ce6020840161111e565b90509250929050565b60208082526027908201527f56434e46543a2055524920717565727920666f72206e6f6e6578697374656e74604082015266103a37b5b2b71760c91b606082015260800190565b600181811c9082168061143257607f821691505b60208210810361145057634e487b7160e01b5f52602260045260245ffd5b50919050565b601f82111561078b575f81815260208120601f850160051c8101602086101561147c5750805b601f850160051c820191505b81811015610cc457828155600101611488565b815167ffffffffffffffff8111156114b5576114b56112bd565b6114c9816114c3845461141e565b84611456565b602080601f8311600181146114fc575f84156114e55750858301515b5f19600386901b1c1916600185901b178555610cc4565b5f85815260208120601f198616915b8281101561152a5788860151825594840194600190910190840161150b565b508582101561154757878501515f19600388901b60f8161c191681555b5050505050600190811b01905550565b5f83516115688184602088016110bf565b83519083019061157c8183602088016110bf565b01949350505050565b6001600160a01b03858116825284166020820152604081018390526080606082018190525f906115b7908301846110e1565b9695505050505050565b5f602082840312156115d1575f80fd5b81516109148161108f56fea26469706673582212205b6297f34823c73a42a1439e765f117ed6ce5126aee04d682fb562ba18b3902264736f6c63430008140033",
  "immutableReferences": {},
  "source": "// SPDX-License-Identifier: MIT\n\n/**\n * Author: Jhone Seo <kjseo@blocko.io>\n * Github: https://github.com/kjunblk\n */\n\npragma solidity ^0.8.20 ;\n\nimport \"@openzeppelin/contracts/token/ERC721/ERC721.sol\";\n\ncontract VCNFT is ERC721 {\n\n\tusing Strings for uint256;\n\n\tstruct Credential{\n\t\tstring  ClaimURI;\n\t\tstring  ClaimHash;\n\t\taddress Issuer;\n\t\tuint256 IssuerTokenID;\n\t}\n    \n\tmapping(uint256=>Credential) private _credentials;\n\n\tconstructor(string memory _name, string memory _symbol) ERC721(_name, _symbol) {\n\t}\n\n\tfunction _isIssuer(address spender, uint256 tokenId) internal view virtual returns (bool) {\n\t\treturn spender != address(0) && _credentials[tokenId].Issuer == spender ;\n\t}\n\n\tfunction _exists(uint256 tokenId) internal view virtual returns (bool) {\n\t\treturn _ownerOf(tokenId) != address(0) ;\n\t}\n\n\t// =====================\n\n\t// Get claimURI\n\tfunction claimURI(uint256 _tokenId) public view returns (string memory) {\n\t\trequire(_exists(_tokenId), \"VCNFT: URI query for nonexistent token.\");\n\t\treturn _credentials[_tokenId].ClaimURI ;\n\t}\n\n\t// Get claimHash\n\tfunction claimHash(uint256 _tokenId) public view returns (string memory) {\n\t\trequire(_exists(_tokenId), \"VCNFT: URI query for nonexistent token.\");\n\t\treturn _credentials[_tokenId].ClaimHash ;\n\t}\n\n\t// Get issuer\n\tfunction issuer(uint256 _tokenId) public view returns (address) {\n\t\trequire(_exists(_tokenId), \"VCNFT: URI query for nonexistent token.\");\n\t\treturn _credentials[_tokenId].Issuer ;\n\t}\n\n\t// Get issuerTokenID\n\tfunction issuerTokenID(uint256 _tokenId) public view returns (uint256) {\n\t\trequire(_exists(_tokenId), \"VCNFT: URI query for nonexistent token.\");\n\t\treturn _credentials[_tokenId].IssuerTokenID ;\n\t}\n\n\t// =====================\n\n\t// certify --> mint\n\tfunction certify(address _to, uint256 _tokenId, string calldata _claimURI, string calldata _claimHash, uint256 _issuerTokenID) public virtual {\n\t\t_safeMint(_to, _tokenId);\n\t\t_credentials[_tokenId] = Credential(_claimURI, _claimHash, msg.sender, _issuerTokenID);\n\t}\n\n\t// revoke --> burn\n\tfunction revoke(uint256 tokenId) public virtual {\n\t\trequire(_isIssuer(msg.sender, tokenId), \"VCNFT: caller is not issuer\");\n\t\t_burn(tokenId);\n\t}\n\n\tfunction transferFrom(address from, address to, uint256 tokenId) public virtual override {\n   \t\trequire(_isIssuer(msg.sender, tokenId), \"VCNFT: caller is not issuer\");\n   \t\trequire(from != address(0), \"VCNFT: from address is invlalid\"); \n   \t\trequire(to != address(0), \"VCNFT: to addressis invlalid\"); \n\n //       address previousOwner = _update(to, tokenId, msg.sender);\n        _update(to, tokenId, msg.sender);\n    }\n}\n\n",
  "sourcePath": "/Users/seo/VCNFT/contracts/VCNFT.sol",
  "compiler": {
    "name": "solc",
    "version": "0.8.20+commit.a1b79de6.Emscripten.clang"
  },
  "schemaVersion": "3.4.16",
  "updatedAt": "2024-10-31T02:01:50.400Z",
  "devdoc": {
    "errors": {
      "ERC721IncorrectOwner(address,uint256,address)": [
        {
          "details": "Indicates an error related to the ownership over a particular token. Used in transfers.",
          "params": {
            "owner": "Address of the current owner of a token.",
            "sender": "Address whose tokens are being transferred.",
            "tokenId": "Identifier number of a token."
          }
        }
      ],
      "ERC721InsufficientApproval(address,uint256)": [
        {
          "details": "Indicates a failure with the `operator`s approval. Used in transfers.",
          "params": {
            "operator": "Address that may be allowed to operate on tokens without being their owner.",
            "tokenId": "Identifier number of a token."
          }
        }
      ],
      "ERC721InvalidApprover(address)": [
        {
          "details": "Indicates a failure with the `approver` of a token to be approved. Used in approvals.",
          "params": {
            "approver": "Address initiating an approval operation."
          }
        }
      ],
      "ERC721InvalidOperator(address)": [
        {
          "details": "Indicates a failure with the `operator` to be approved. Used in approvals.",
          "params": {
            "operator": "Address that may be allowed to operate on tokens without being their owner."
          }
        }
      ],
      "ERC721InvalidOwner(address)": [
        {
          "details": "Indicates that an address can't be an owner. For example, `address(0)` is a forbidden owner in ERC-20. Used in balance queries.",
          "params": {
            "owner": "Address of the current owner of a token."
          }
        }
      ],
      "ERC721InvalidReceiver(address)": [
        {
          "details": "Indicates a failure with the token `receiver`. Used in transfers.",
          "params": {
            "receiver": "Address to which tokens are being transferred."
          }
        }
      ],
      "ERC721InvalidSender(address)": [
        {
          "details": "Indicates a failure with the token `sender`. Used in transfers.",
          "params": {
            "sender": "Address whose tokens are being transferred."
          }
        }
      ],
      "ERC721NonexistentToken(uint256)": [
        {
          "details": "Indicates a `tokenId` whose `owner` is the zero address.",
          "params": {
            "tokenId": "Identifier number of a token."
          }
        }
      ]
    },
    "events": {
      "Approval(address,address,uint256)": {
        "details": "Emitted when `owner` enables `approved` to manage the `tokenId` token."
      },
      "ApprovalForAll(address,address,bool)": {
        "details": "Emitted when `owner` enables or disables (`approved`) `operator` to manage all of its assets."
      },
      "Transfer(address,address,uint256)": {
        "details": "Emitted when `tokenId` token is transferred from `from` to `to`."
      }
    },
    "kind": "dev",
    "methods": {
      "approve(address,uint256)": {
        "details": "See {IERC721-approve}."
      },
      "balanceOf(address)": {
        "details": "See {IERC721-balanceOf}."
      },
      "getApproved(uint256)": {
        "details": "See {IERC721-getApproved}."
      },
      "isApprovedForAll(address,address)": {
        "details": "See {IERC721-isApprovedForAll}."
      },
      "name()": {
        "details": "See {IERC721Metadata-name}."
      },
      "ownerOf(uint256)": {
        "details": "See {IERC721-ownerOf}."
      },
      "safeTransferFrom(address,address,uint256)": {
        "details": "See {IERC721-safeTransferFrom}."
      },
      "safeTransferFrom(address,address,uint256,bytes)": {
        "details": "See {IERC721-safeTransferFrom}."
      },
      "setApprovalForAll(address,bool)": {
        "details": "See {IERC721-setApprovalForAll}."
      },
      "supportsInterface(bytes4)": {
        "details": "See {IERC165-supportsInterface}."
      },
      "symbol()": {
        "details": "See {IERC721Metadata-symbol}."
      },
      "tokenURI(uint256)": {
        "details": "See {IERC721Metadata-tokenURI}."
      },
      "transferFrom(address,address,uint256)": {
        "details": "See {IERC721-transferFrom}."
      }
    },
    "version": 1
  },
  "userdoc": {
    "kind": "user",
    "methods": {},
    "version": 1
  }
}